:020000041000EA
:10000000002008205D0100101B0100101D010010E0
:100010001101001011010010110100101101001058
:100020001901001019010010190100101F01001022
:10003000110100101901001021010010230100100E
:100040001101001011010010110100101101001028
:100050001101001011010010110100101101001018
:100060001101001011010010110100101101001008
:1000700011010010110100101101001011010010F8
:1000800011010010110100101101001011010010E8
:1000900011010010110100101101001011010010D8
:1000A00011010010110100101101001011010010C8
:1000B00011010010110100101101001011010010B8
:1000C00011010010110100101101001011010010A8
:1000D0001101001011010010110100101101001098
:1000E0001101001011010010110100101101001088
:1000F0001101001011010010110100101101001078
:100100001101001011010010110100101101001067
:10011000EFF30580103800BE00BE00BE00BE00BE7A
:1001200000BE00BEF2EB8871208F00103C8F0010E3
:10013000A001001090A31AE7D3DEFFFF42012110B7
:10014000FF01000048A60000793512AB4FF0000017
:100150001E49086006C881F3088810474FF05040D8
:10016000006810B14FF00000F2E70DA40ECC00299A
:1001700002D000F012F8F9E71549164A002000E015
:1001800001C19142FCD11449884714498847144958
:10019000884700BEFDE701C901C29A42FBD3704700
:1001A0003C8F00101001002028100020549E0010E9
:1001B000000008202C09082080A70010001008204B
:1001C00000100820000000007047000008ED00E06B
:1001D000281000200C950020452E00101101002051
:1001E0003D2E0010F8B500BF0348044B834202D0F7
:1001F000034B03B118477047281000202810002037
:1002000000000000064B0749C91A891048BF013198
:10021000491003D0044B0BB101481847704700BF89
:1002200028100020281000200000000010B5064C07
:10023000237843B9FFF7D8FF044B13B10448AFF359
:1002400000800123237010BD5C140020000000001A
:100250000049001008B5044B1BB104490448AFF332
:100260000080BDE80840CDE70000000060140020D9
:1002700000490010044B10B4044C195444F82020D9
:100280005DF8044B704700BFF8550020F85100207E
:10029000114B10B553F820308BB101220F4C10498F
:1002A0002080104C095C23600F48104C02702170B4
:1002B00009B90846984700220D4B1A6010BD4FF649
:1002C000FF71064A074C1180002208482360037022
:1002D000074B1A6010BD00BFF8510020B20A002081
:1002E000F8550020686F0020B00A0020FB94002021
:1002F000B41900202DE9F84F0F46DFF814B19BF830
:100300000010002F75D080460024DFF800913A4E8F
:10031000DFF800A10BE0D9F80030002B59D033688A
:10032000364AD554013333600134A7422CD0E3B2AE
:1003300038F81330DDB2DB05EDD43368002934D052
:100340002F4A1278002A46D0994204D899B22B48F5
:10035000D9F8003098475AF82530002B2FD0294A79
:100360002749158001220A702749C9F80030495DE4
:100370008BF8001019B9084698479BF80010002325
:100380000134A7423360D2D141B31D4C2278002AF8
:100390002CD0994207D81D4918480D6899B2A84732
:1003A000002323703360BDE8F88F002BD3D0144AAC
:1003B0001278002ACAD05AF82530002BCFD14FF638
:1003C000FF721946C9F800308BF800300D4B1A80C7
:1003D000D5E73360A8E7002BB8D1BCE7002BE2D00B
:1003E000074C2278002AD6D0BDE8F88F002BD2D156
:1003F000D9E7014E3368C7E7B4190020AC170020D5
:10040000B00A0020B20A0020F8550020686F0020D2
:10041000FB940020F851002083001A4603F03003BB
:1004200002F00C021343C0F301101843704700BFE1
:10043000F0B5802320EE1030012300256FF0004E30
:10044000104A114F14683968104E236301EB0E00F7
:1004500006EB40000DE0236A0131C3F3C05C1B0EC4
:1004600043EA0C23B1F5007F4FF0010520F8023F6D
:1004700006D2626812F48072EDD005B13960F0BD29
:100480001146E3E7B40A00202C5F00202C5B00201B
:1004900008B50A210748084C02F042FF054802F05F
:1004A00093FF237803B1FEE701F006F82378002BD1
:1004B000FAD0F8E7A81100200A9500202DE9F041B4
:1004C000164600241A464FF440234FF48038054660
:1004D0000F4686B000940493F401731D44EA03347C
:1004E00024F0C04444F080440394D40304F47824FA
:1004F0000A2344F00054CDF80880059403F06EFB05
:10050000049B394623F0C02343F000430493324652
:1005100002AB2846CDF8088003F0A6FB01212B682A
:10052000B9401943296006B0BDE8F081012914D90A
:100530000A4A037812789A420FD909494278097811
:1005400091420AD907490848097890F800C00B443D
:1005500006480749624403700A707047BB0A0020CE
:10056000BA0A0020FC940020FD940020069500208B
:100570000795002011B10278014B1A70704700BF37
:10058000BF0A0020027802F00F03B3EB121F4FEAFC
:10059000121102D91A460B4611460248024A01704E
:1005A0001370704705950020049500200378034AD6
:1005B000003B18BF01231370704700BFBE0A002024
:1005C000F0B40378094F0A4E0A4D0B4C3B70337060
:1005D00043780A492B702370094A90F802C0C37807
:1005E00081F800C01370F0BC704700BFFC9400207D
:1005F00006950020FD94002007950020BB0A0020EE
:10060000BA0A002090F800C00349044B427881F8F0
:1006100000C01A70704700BFB90A0020B80A002055
:10062000014B02781A707047BD0A00202DE9F04F87
:1006300052B1002410F8013B1A4F1B4A1B4D0139DF
:100640003B4489B22C70136049B34FF00009164C3B
:10065000144F2268154DDFF85880DFF858E000EBA2
:10066000010C10F8013B13702B78266898F800A055
:100670000133DBB2BEF8001006F580729A4507EB35
:10068000010B22602B7004D806F20112226085F85B
:1006900000905A4524BF521A22608445E1D1BDE83A
:1006A000F08F00BF385F0020C00A0020FA940020BD
:1006B00008950020F89400201022012010B4084C66
:1006C000084B94F800C0084983F800C00978074B2C
:1006D0001970074B07491A705DF8044B0870704792
:1006E000019500200495002002950020059500202A
:1006F000BD0A0020BE0A0020034A044B1288196874
:10070000034803F0A9BF00BFF8940020F094002034
:10071000385F0020074B1B7853B1074B1B783BB168
:10072000064B074A18780749074B127808701A7069
:10073000704700BFBB0A0020BA0A0020FC940020CA
:10074000FD94002006950020079500204A4B1B7859
:10075000002B00F090802DE9F04F484A00231678D6
:1007600008229A46114685B001930096009B002B03
:100770007ED000250E46424B1C78424B2C4493F809
:1007800000904C4561D2404A404B92F800B01B7833
:10079000019A13445B4558D209FB03443C4B304655
:1007A00003F804A0FFF738FE1BFB09FB80464FEA65
:1007B0008A10B0FBFBF0C0B2FFF72EFE4FF00F0C1B
:1007C000344B354A1988034604F00707E40852F809
:1007D0002400BF000CFA07FC20EA0C000290C8F3CA
:1007E00001100390254808F0030BC8F3810990F825
:1007F00000800298CDF800804FEA830808F00C08CA
:1008000048EA0B0808FA07F848EA000042F8240012
:1008100004EB010E52F82E0003F00C0444EA090424
:1008200020EA0C00BC4004439B08039803F00C032F
:10083000714442F82E40184300FA07F352F82100A1
:1008400020EA0C00184342F82100731CDEB2009B22
:1008500001350AF1010AAB421FFA8AFA8BD8064B1E
:10086000019A1B7801329342314601923FF67EAFE6
:1008700005B0BDE8F08F7047BA0A0020BB0A00201F
:10088000FC940020FE940020FF940020FD940020A2
:10089000706F0020F6940020B8190020002900F0A5
:1008A0008A8042182DE9F04F05469146DFF838A1BD
:1008B00083B09AF80030404A404814784049A34237
:1008C00005F1010557D23F4A3F4E12783678B242C1
:1008D00051D202FB043415F8013C3C4A00780F78F1
:1008E0001355FFF799FD80463846FFF795FD024600
:1008F000374B4FF00F0C1F8804F00706E40804EB99
:10090000070E07EB0E030093C8F381031F4631491E
:10091000C8F3011308F0030B4FEA820851F82400D2
:10092000B60008F00C080CFA06FC48EA0B0820EAAE
:100930000C0008FA06F848EA000041F8240051F8D3
:100940002E00019320EA0C0402F00C003843B04062
:10095000204341F82E00009C0198920802F00C02FE
:10096000024351F82400B24020EA0C0002439AF8F6
:10097000003041F82420184A01331178174ADBB2BD
:100980001278174C0A44934216488AF800300DDB5F
:100990000C4E2278337800780133DBB21044834266
:1009A000B8BF1A460B468AF8001032704D4582D106
:1009B00003B0BDE8F08F7047FE940020B80A002015
:1009C000B90A002007950020FF940020706F0020D6
:1009D000F6940020B8190020FC940020BB0A0020E7
:1009E000FD940020BA0A0020069500202DE9F04F62
:1009F000414B424A1B78177885B0002B71D04FF0DD
:100A00000F0B3C463E4A3F4B16781B78002104FBF7
:100A100003663D4B93F800A03C4B524698193C4B63
:100A20001D783C4B1F7803F073F906F007039B0019
:100A300038460193FFF7F0FC80462846FFF7ECFCB0
:100A4000354B86461F88F610BAF1000F41D0CDE92C
:100A500002A44FF003093446BA46304D4FEA8E0CDB
:100A600008F003030CF00C0C4CEA030C2046DDE903
:100A700001310026CDF8009009E073B9B6B33246D3
:100A8000471C0739013945F8202017D03846072977
:100A90000BFA03F70CFA03F9EFDC55F820200433C6
:100AA00022EA07021C2B42EA09021DD901394FF044
:100AB000000300F1010745F82020E7D1DDF80090A0
:100AC000C8F38708B9F10109CEF3870E5444C5D1A4
:100AD000039C0A4B084A1B78127801341344A34242
:100AE00090DC05B0BDE8F08F0746CBE74FF0113240
:100AF00002FB0CF6C3E700BFBA0A0020FD940020F9
:100B0000FC940020FE940020BB0A0020706F00209F
:100B1000B90A0020B80A0020F6940020B819002075
:100B200038B590F9004044B1104D84EAE4732A7856
:100B3000A3EBE473DBB29A4200D938BD0021012255
:100B40000846FFF753FF0A4A0A4B1278002C1A7026
:100B500007DB094B29781B78084A0B44013B1370CB
:100B600038BD054A054B12781A7038BDBB0A002003
:100B7000FD94002007950020FC940020069500209D
:100B80002DE9F04F90F9005091B0002D00F0578101
:100B9000AC4C85EAE5732678A3EBE573D9B28E42B7
:100BA00040F23A81A84BA94F1C78A94B002D187828
:100BB000A84B97F800B093F8009014FB00F3A6EB55
:100BC0000102049009EB030740F354812819049DA6
:100BD000002A05FB00F002EB040540F32C82C31A47
:100BE00009939D4B9D4805931B88CDE90B640393A6
:100BF000C3190E9500974FF00F0A1D4600245F465B
:100C000006900D910A92CDF83C90099E009B7119B7
:100C10003A4628469E1903F01FFD009806F0070982
:100C2000414201F0070100F0070258BF4A42930019
:100C300002460028B8BFC21D714201F0070158BF2B
:100C4000C1F10009002EB8BF0736D2104FEA89095A
:100C50004FEAE60E002F48D04FF00308CDE90754C5
:100C6000CDE901397E4EA2EB0E0B3846DDE90121BC
:100C7000F446072856F82C300BEB0E0411DD81B931
:100C8000002A40F09781073801380CF1010C04F17B
:100C9000010546F8243021D02C46072856F82C3080
:100CA000EDDC0AFA01F956F8245004311C2909EA4E
:100CB00003030AFA02F902F1040225EA090584BFD6
:100CC00000210CF1010C1C2A43EA05038ABF002213
:100CD0002546651C013846F82430DDD1039BB8F168
:100CE00001089E44C1D1DDE90754009B049A0134F8
:100CF000134400930A9B1544A34286D1DDE90B649B
:100D0000DDE90D15BB46DDF83C9002FB0597331974
:100D10005B1ADCB20022534B4FF00F0A83F80090AD
:100D2000514B07911C701446504B00211D78069BB7
:100D30005A46D8194E4B3E4693F8008002F0E8FF21
:100D40007A4202F0070207F0070358BF53429B00A4
:100D5000002F40460193B8BFFE1DFFF75DFB8046A4
:100D60002846FFF759FB059B86461B88F610029321
:100D7000BBF1000F45D0CDE903744FF003093446B1
:100D8000374D4FEA8E0C08F003030CF00C0C4CEAC4
:100D9000030C204659460026019BCDF800900BE03D
:100DA00083B9002E00F01A813246471C07390139F9
:100DB00045F8202018D0384607290AFA03F70CFA1C
:100DC00003F9EDDC55F82020043322EA07021C2B3E
:100DD00042EA090240F2EC8001394FF0000300F1D1
:100DE000010745F82020E6D1DDF80090029BB9F11B
:100DF0000109C8F38708CEF3870E1C44C1D1DDE991
:100E00000374134B01341B781F44079BA34216D075
:100E10000E4B93F800B087E7002101220846FFF748
:100E2000E5FD0C4A0F4B1278002D1A70C0F2F980C4
:100E3000054B21781B780C4A0B44013B137011B011
:100E4000BDE8F08FBA0A0020FD940020BB0A002004
:100E5000FE940020FC940020F6940020706F002087
:100E6000B81900200695002007950020B90A002037
:100E7000B80A0020301901384319049D002A05FBE7
:100E800000F005FB03F300EB09052E4640F3CE808E
:100E900000251B1A09936B4B6B4805931B88CDE902
:100EA0000B410293831903954FF00F0A34461D46F8
:100EB00006900A920D97CDF83890099B5A46E9188A
:100EC0002846E61803F0C8FB624202F0070204F06D
:100ED000070358BF53422246002CB8BFE21D7042A0
:100EE00000F0070006F0070158BF4142002EB8BFCE
:100EF00007369B00D2104FEA81094FEAE60EBBF19C
:100F0000000F47D04FF00308CDE900394F4FA2EB57
:100F10000E06079408955846DDE90021F446072897
:100F200057F82C300EEB060410DD79B9002A5FD19A
:100F3000073801380CF1010C04F1010547F82430A1
:100F400021D02C46072857F82C30EEDC0AFA01F99C
:100F500057F8245004311C2909EA03030AFA02F95C
:100F600002F1040225EA090584BF00210CF1010CFD
:100F70001C2A43EA05038ABF00222546651C013866
:100F800047F82430DDD1029BB8F101089E44C2D15C
:100F9000DDE90745049A039BA41AAD1A0A9A0133A6
:100FA0009A42039389D1DDE90B41DDE90D79B1E680
:100FB0000746FCE656F824500AFA02F903F00F033C
:100FC00025EA090504321D431C2A46F824500AD993
:100FD000651C0A462C46042101385EE64FF01132AA
:100FE00002FB0CF6E0E6042156F82C30013858E6F6
:100FF00057F824500AFA02F903F00F0325EA09050D
:1010000004321D431C2A47F8245005D9651C0A46A2
:101010002C460421013895E7042157F82C3001387B
:1010200094E70B4A0B4B12781A7008E7054B0593AF
:10103000054B06936EE6034B049A0593024B069309
:1010400063E600BFF6940020706F0020B8190020FE
:10105000FD94002007950020002900F042812DE931
:10106000F04F431887B004464FF00F0901937CE01E
:101070000A2B00F089800C2B00F0198199499A4ABB
:101080000D781278AA4254D2984999480978007884
:1010900081424ED201FB0525964A05F007065355BD
:1010A000954BED081F78954BB6001878FFF7B4F90B
:1010B00080463846FFF7B0F90146914B914A08F057
:1010C000030AC8F3810EC8F30118CDF808804FEA6F
:1010D0008108178808F00C0853F8252009FA06F053
:1010E00048EA0A0822EA000B08FA06F848EA0B0860
:1010F00043F8258005EB070C53F82C50674425EA8C
:10110000000801F00C0545EA0E05B54045EA080562
:1011100043F82C508908029D01F00C01294353F833
:101120002750714AB14025EA00052943127843F857
:101130002710754B75491B7809780132D2B26A4E77
:101140000B449A4232700DDB6848714A714D037846
:1011500012782D780133DBB22A4493423170037048
:1011600080F2B780019BA3420BD014F8013B0D2BFA
:101170007FF47EAF654B5C4A1B781370019BA342E2
:10118000F3D107B0BDE8F08F574B5A481A78554B4A
:101190001F78564B1B7803FB07275B4B38441978A5
:1011A0005A4B1B780B449A1A534B00211D78534B12
:1011B00093461E78039202F0ABFD07F007039B00F5
:1011C00030460493FFF728F980462846FFF724F9B4
:1011D0005A464C4B002A8246B3F800C04FEAE70754
:1011E00044DD4FF0030B3D462646454BCDF814C079
:1011F0004FEA8A0C08F003020CF00C0C4CEA020CCB
:101200002C46DDE903020027CDF808B00BE082B9D7
:10121000002F47D0394604F1010E0738013843F852
:10122000241017D07446072809FA02FE0CFA02FBB4
:10123000EDDC53F82410043221EA0E011C2A41EAA5
:101240000B012DD901384FF0000204F1010E43F8D3
:101250002410E7D1DDF808B0059ABBF1010BC8F303
:101260008708CAF3870A1544C2D13446284B1F4960
:101270001A78284B1C481B781A440B780133DBB2D0
:101280000B702249934209780170FFF66BAF174B40
:10129000013A1A70012220481146FFF771FC61E7FC
:1012A000A646BBE74FF0113101FB0CF7B2E7002176
:1012B00001220846FFF79AFB154B164A1B78127855
:1012C00013440A4A013B1370104B074A1B781370F2
:1012D00054E7013A027001220F481146FFF750FC13
:1012E00040E77047FE9400200695002007950020F7
:1012F000FF940020706F0020B90A0020B80A002077
:10130000B8190020F6940020BB0A0020FC940020AD
:10131000FD940020BA0A00203449001071B12DE973
:10132000F04703785BB1012B5DD0102B69D0112BF6
:1013300075D0202B00F08180BDE8F08770474FF416
:1013400080524FF496751E230E204FF00D0C20276F
:101350004FF01008164640494FF0080A4FF0500E63
:101360000024DFF8449189F800A0DFF8409189F863
:101370000080DFF83C8188F80070384FDFF8348156
:1013800087F800C0364F88F8004087F800C0354F16
:101390003870354F38703548354F06803548364EF1
:1013A00080F800E03548337003703548354B0580D0
:1013B000354D3648196085F800E03C7003F04CF973
:1013C000012221462046FFF711FB2B78002BB3D0DA
:1013D0003378002BB0D02E4998F800002D4B3A7886
:1013E00008701A70A8E74FF480524FF496751E23C8
:1013F0000E204FF00D0C20274FF0100816462649FE
:10140000AAE74FF400624FF416753C2307204FF013
:10141000060C20274FF00808164620499CE74FF499
:1014200000624FF416753C2307204FF0060C20276E
:101430004FF0080816461A498EE74FF480624FF4C1
:101440009665782307204FF0000C0C274FF0040816
:101450001646144980E700BF187F0010049500204D
:10146000019500200595002002950020F8940020A9
:10147000FD940020FE940020BA0A0020FF94002072
:10148000F6940020F0940020BB0A0020385F002072
:101490000695002007950020186F001018670010AF
:1014A000185F0010185B00100995002008950020B7
:1014B00003950020FC9400202DE9F04F944A9549B3
:1014C000137809780133DBB28B42ADF22C4D1370E7
:1014D00068D300231370002900F00F818E4A13781F
:1014E0000392B3FA83F35B091370002B5FD10025DD
:1014F000FF268A4F029597F800803346B5FBF8F433
:10150000E6B29E4206D0864B1B789B1BB3FA83F350
:101510005B090293834805A901F006F8029B002BA2
:1015200000F0BC80039B1B78002B00F0B7807E4B43
:101530001B78002B00F0B28008FB14547B4BE4B204
:101540001B78A34200F2AA80794B1B78A342C0F01B
:10155000A58000240DF168090DF118083978059A65
:10156000B5FBF1F301FB13537249224401EB032352
:10157000009349464FF42073404604F5A06403F0FD
:101580008BF9B4F5706F09F5A079E7D16A4805A920
:10159000013500F08BFFB5F5F07FACD10DF22C4D8D
:1015A000BDE8F08F5C4B03931B78002B9FD05E4B04
:1015B0001B78002B9BD0614B594A1E7814786049E8
:1015C0000DF1180904FB06113246484603F044F8B1
:1015D0005C4B1AAD1F885C4B760819782B46B7FB1D
:1015E000F1F104FB01F1594CBF000DF5856804EBE6
:1015F000810421461846324603F02EF800F5A07308
:1016000043453C44F5D1524A524B14781B780F277E
:1016100009F80430504B04F007061878FEF7FCFE7A
:101620004E4B80461878FEF7F7FE0346E4084FEA73
:10163000830955F82420B60008F0030A09F00C09C4
:1016400007FA06FE49EA0A0904F1500004F1A00174
:1016500022EA0E0C09FA06F955F8202055F82170F7
:1016600049EA0C0C45F824C09C0822EA0E0227EA3D
:101670000E0703F00C03C8F3810E04F00C04C8F34A
:10168000011843EA0E0344EA0804B340B44013438C
:101690003C4345F8203045F8214028E70024DFF896
:1016A000A0B0DFF8A0A0DFF8A090DFF8A080BAF823
:1016B000001099F800303A78B1FBF3F304FB01F124
:1016C00006FB0311B5FBF2F302FB1353194A08EBB7
:1016D000810102EB0323194A00931078059B04EB68
:1016E000840203EB022206FB00B04FF420730134A6
:1016F00003F0D2F8032CDAD148E70123064A13702D
:10170000094B03921B78002B3FF4F1AE53E700BF67
:1017100000950020BD0A0020BC0A0020089500208A
:10172000079500202C140020BE0A002004950020FC
:1017300005950020385F00201C140020FE94002036
:10174000706F0020F6940020FF940020B81900204C
:101750000695002003950020B90A0020B80A002051
:101760002DE9F041012110200824534AFEF782FDA3
:1017700001211220514AFEF77DFD1027012113207F
:101780004F4AFEF777FD012114204E4AFEF772FD05
:10179000012115204C4AFEF76DFD002116204B4A11
:1017A000FEF768FD04211720494AFEF763FD022178
:1017B0001120484AFEF75EFD00211820464AFEF738
:1017C00059FD00211920454AFEF754FD02211A2037
:1017D000434AFEF74FFD01211B20424AFEF74AFD16
:1017E00001211C20404AFEF745FD01211D203F4AF2
:1017F000FEF740FD01211E203D4AFEF73BFD002182
:101800001F203C4AFEF736FD012120203A4AFEF710
:1018100031FD00212120394AFEF72CFD4FF0200C2C
:101820000D250E204FF480525021354B354E1C7043
:101830001E2337704FF496760024334FDFF8108163
:1018400087F800C0314F88F800403D70304F3D7040
:10185000304D314F2870314D3C7028703048314D3B
:101860000280314829700170304831490370314895
:101870000680314E31483370314B1960314902F0E6
:10188000EBFE012221462046FFF7B0F82B7843B14A
:10189000337833B12C4998F800002C4B3A78087013
:1018A0001A70002101220846FEF750FFBDE8F04102
:1018B0001C20FEF7EDBC00BF1D13001075050010C5
:1018C00085050010AD05001021060010B9060010B6
:1018D000C105001005060010ED09001015070010E5
:1018E0002D0500109D08001059100010210B00104C
:1018F000810B0010F90600102D0600104D07001096
:1019000009950020089500200395002004950020EB
:101910000195002005950020FD94002002950020EF
:10192000F8940020BB0A0020FE940020FF940020C1
:10193000187F0010F6940020BA0A0020385F0020BB
:10194000F0940020B44A001006950020079500206E
:10195000FC94002010B44FF480740C4B53F82020FA
:1019600003EB8003C00082F0400200F1804003F5E9
:10197000805C02F0C00200F5203003F54053CCF843
:10198000002041601C605DF8044B704704800340F8
:1019900010B4084CC90041EA820154F8202004EB3D
:1019A0008003514003F5805301F00C015DF8044BB6
:1019B0001960704704800340C00000F1804004308B
:1019C00000F520331B6800F5243083EA013303F46B
:1019D00040530360704700BF30B44FF0000343EC46
:1019E000440043EC400005254FF480740B4BC200CB
:1019F00053F8201003EB800081F0400102F1804396
:101A000003F5203301F0C00200F5805100F540508D
:101A10000A605D60046030BC704700BF0480034012
:101A20000FB400B583B0049C074801F031FB3CB112
:101A300005A92046019101F0D1F9044801F028FBE5
:101A4000012001F0E3F900BF3849001048490010B7
:101A5000EFF3108072B6064BD3E8CF1F01220029A6
:101A6000FAD1C3E8412F0029F6D1BFF35F8F704749
:101A70008B1700200023034AC2E88F3F80F31088B1
:101A8000704700BF8B17002070B58646EFF31085B6
:101A900072B6124CD4E8CF6F0120002EFAD1C4E800
:101AA000460F002EF6D1BFF35F8F4FF0010CC80830
:101AB00001F007030CFA03F31EF800C01CEA03064A
:101AC00008D14CEA030C0EF800C0C4E88F6F85F310
:101AD000108870BD1046FFF7A3FF00BF8B170020D2
:101AE000F8B5EFF3108572B6234CD4E8CF7F01260A
:101AF000002FFAD1C4E8476F002FF6D1BFF35F8FF4
:101B00009A4227D80126D70810F807E002F0070C00
:101B100006FA0CFC1EEA0C0F00EBD2070DD125E0F3
:101B20004FEAD20E10F80EE002F0070C06FA0CFC99
:101B30001EEA0C0F00EBD20718D001329342EFD20D
:101B40004FF0FF300023C4E88F3F85F310889842A0
:101B500007DBF8BD0023C4E88F3F85F310884FF002
:101B6000FF300029F5D00698FFF75AFF4EEA0C0E19
:101B7000104687F800E0E5E78B170020044A10784C
:101B8000431CDBB2182B28BF10231370704700BF13
:101B9000C40A00204FF0E022936843F000539360A2
:101BA000704700BF0021044B03F12002C3E88F1FE0
:101BB00001339342FAD17047801700204FF0E023A1
:101BC0004FF08032C3F80024C3F80424C3F808247B
:101BD000C3F80C24C3F81024C3F81424C3F8182441
:101BE000C3F81C24C3F82024C3F82424C3F82824F1
:101BF000C3F82C24C3F8302462B67047012300F0E8
:101C00001F029340400941B1800000F1604000F59F
:101C10006140C0F8803103607047024A203042F8CA
:101C20002030704700E100E00123064A410952F8E4
:101C3000212000F01F008340134214BF0120002028
:101C4000704700BF00E100E0F8B50D46EFF31087E4
:101C500072B6124ED6E8CF2F0123002AFAD1C6E879
:101C6000423F002AF6D1BFF35F8F0D4B00F1100405
:101C70009B680C4A53F82430934203D0994201D018
:101C800000F048FF064B9B6843F82450BFF35F8F7A
:101C90000023C6E88F3F87F31088F8BD891700201E
:101CA00000ED00E011010010014B0B440360704790
:101CB0008017002070B5104C104DAC420ED2FF269C
:101CC000236863B1FFF75AFF01462046FFF7ECFF98
:101CD000A680BFF35F8F0834AC42F1D370BDFFF72D
:101CE0004DFF01462046FFF7DFFF2671BFF35F8FF0
:101CF0000834AC42E4D370BD181000202810002036
:101D00000D4B1A68EFF3108172B6D2E8CFCF0120E5
:101D1000BCF1000FF9D1C2E84C0FBCF1000FF4D1B7
:101D2000BFF35F8F00221B68C3E88F2F81F31088F9
:101D300040BF0020002170476C6F002000000000B1
:101D40002DE9F04F2DED028B85B0EFF30583DBB26B
:101D5000103B9A0818BF01224FF0010103F0030065
:101D600018BFAF4DAF4B08BFAF4D00EB820253F829
:101D7000226001FA00FB05F541539FEDA78B01900E
:101D8000C3F804B02EE0B388180440F19280B37910
:101D9000002B40F0DC80B6F908100029C0F21D814C
:101DA000736901EB410103EBC103D3E90247B7F1CA
:101DB000FF3F08BFB4F1FF3F0DD0019B05EB83014E
:101DC000AB6A0A69D21AE31A934203D32B6A13EA65
:101DD0000B0F00D10C61284600F032FBA042B94144
:101DE000C0F2FB80B6F90830C5F83CB0002B009378
:101DF000C9DBD6F8149003EB430A284609EBCA075F
:101E0000D7E9024800F01CFBA04271EB0801BADBE5
:101E1000B8F1000FC0F2C380D7E90431834A93427E
:101E200000F0ED807A88B6F9080092B242EA0040EC
:101E3000984702460B4652EA030100F0B080002B9F
:101E400080F2D180B4EB020E68EB030839F93A3026
:101E5000C7E902E8002B96DB716903EB430201EB53
:101E6000C202D2E90270BE4578EB000C4FEA430291
:101E700089DBB4462CF8083F0BE031F93230A44638
:101E8000002B0DDB03EB430001EBC0005A00D0E94F
:101E90000270BE451A4478EB000001EBC204ECDA94
:101EA00029F83A30009BACF80030B38818043FF5AD
:101EB0006EAF3369EFF3108272B6D3E8CF0F012112
:101EC0000028FAD1C3E8401F0028F6D1BFF35F8F86
:101ED0004FF6FF74B0880023316900B2B480C1E8C6
:101EE0008F3F82F310889842FFF651AF0746A9460C
:101EF000746906F1080807EB470E04EBCE03D3E93B
:101F00000250B6F90830C446002B13DBB2460097E6
:101F100004E034F936309446002B09DB03EB43062A
:101F200004EBC602D2E90271BD4270EB0101F0DAA6
:101F30005646009FACF8007034F93E7024F83E30ED
:101F4000002FD8DAB3794D46002B3FF424AF00239D
:101F5000B371B6F9083006F10808591C3DD019468E
:101F6000776903E080465A1C3FF417AF03EB430246
:101F700007EBC200B0F802C01C461CF4004F9E469E
:101F800037F93230EED08C4280ED028B05D0A8F8C4
:101F90000030318927F8321034817146E3E739F88F
:101FA0003A3033813369EFF3108272B6D3E8CF0F42
:101FB00001210028FAD1C3E8401F0028F6D1BFF361
:101FC0005F8F7388316929F83A30009B7380002352
:101FD000C1E88F3F82F31088D5E640BF05B0BDEC65
:101FE000028BBDE8F08F2846CDE9022300F028FAE5
:101FF000029A039B10EB020E43EB010826E708460A
:102000000B69029198470028C9D00299D1E90023B1
:1020100011E700BFAFF30080FFFFFFFFFFFFFFFFEF
:1020200000800B40486F002000000B40411D001055
:102030002DE9F84F364C25692DB1BDE8F84F0A213E
:102040003448FFF731BEDFF8E4800321404600F05A
:10205000E5F90326C4F80C80FFF790FD4FF0504CD3
:102060002D4B267003442361DCF800300F21637090
:10207000636961801D834FF00405A3F878504FF029
:102080000505A3F890504FF00605A3F8A8504FF0AF
:1020900007050E214FF6FF7208274FF00A0EA3F82E
:1020A000C0504FF001094FF00C0C4FF0020B4FF0F5
:1020B000090A0D204FF00B05A3F868111749A280FB
:1020C000A3F808E1A160A3F848B0A3F8F0A0A3F832
:1020D0002051A3F838C1A3F85001A3F83090A3F819
:1020E0006060A3F8D8701A800D4B3046C8F8207095
:1020F0000C49DC60FFF7A8FD49463046FFF77EFD3E
:10210000094B0A211F640348BDE8F84FFFF7CCBD17
:10211000C80A00206C6F002080170020FFFF10000D
:10212000486F0020411D001000200B4000000B40B4
:102130000146F0B50069EFF3108772B6D0E8CF5FC3
:102140000124002DFAD1C0E8454F002DF6D1BFF390
:102150005F8FB1F902E04C690EEB4E0CBEF1000F3F
:102160004FEACC0504EBCC0C3DDB605B00264880DD
:102170000869C0E88F6F87F31088BCF80200CCE9CB
:1021800002230130C0F30E00012838BF0120059B57
:10219000ACF80200CCF81030069B40EA0E40CCF8B8
:1021A00014300B69EFF3108272B6D3E8CFCF01275A
:1021B000BCF1000FF9D1C3E84C7FBCF1000FF4D1A2
:1021C000BFF35F8F8B886353A1F804E00B69C3E80A
:1021D0008F6F82F310880122CB68097803F50153D1
:1021E0008A405A60F0BD00230A69C2E88F3F87F336
:1021F00010884FF0FF30F0BD03464089B0EB214F0F
:1022000037DD58690A1402EB420210B500EBC20038
:102210001C69EFF3108C72B6D4E8CFEF0122BEF147
:10222000000FF9D1C4E84E2FBEF1000FF4D1BFF377
:102230005F8F428889B292B28A4207D000221B691E
:10224000C3E88F2F8CF31088002010BD42F40042A9
:1022500042800121002218699971C0E88F2F8CF308
:1022600010881C78DA68084602F50153A1405960CD
:1022700010BD0020704700BF2DE9F041861F41F1DD
:10228000FF35B04271EB050338BF002682B038BF7E
:10229000354604460F4600F0DBF8301A65EB0103C3
:1022A000012873F1000306DA2046394602B0BDE882
:1022B000F04100F0D7B800F0CBF8864265EB0101A1
:1022C00000290ADB0021174B3246009316482B46A3
:1022D0000191FFF72DFF0028E6DB4FF0000C1348BB
:1022E000134A436A9D4204D8816AB142DCD29D42BE
:1022F000DAD11368EFF3108172B6D3E8CF8F5FF0B5
:10230000010EB8F1000FF8D1C3E848EFB8F1000FA3
:10231000F3D1BFF35F8F1368C3E88FCF81F31088C9
:1023200020BFDEE7011D0010C80A002000000B409E
:102330006C6F002010B5044600F08AF84FF47A73F1
:102340004FF0FF3C6FF00042E4FB0301BDE810409A
:10235000844572EB01033CBF60461146FFF78CBF1A
:102360002DE9F04306460D4683B0EFF30584E4B251
:102370003CB1274B586AA8421CD2002003B0BDE8EC
:10238000F083244FD7F80C9097F80080484600F06F
:1023900057F808F1040859F828301B1A301A65EB71
:1023A0000101984271F1000111DB20BF184B586AFE
:1023B000A842E2D39B6AB34203D3012003B0BDE835
:1023C000F083401B18BF012003B0BDE8F08300F08C
:1023D0003FF8864265EB01010029CADB0E4B384607
:1023E000CDE9003432462B46FFF7A2FE011EC0DDC8
:1023F000074B5A6AAA4208D39B6AB34203D30548E3
:10240000FFF7FAFEB5E7AA42F9D120BFF7E700BF10
:1024100000000B40C80A0020011D001010B4054B3D
:10242000054C064AA04214BF1846581C5DF8044BE0
:10243000FFF72ABBAC19002000800B404C4900106C
:102440000346416A0A46986A596A8A42FAD1704735
:10245000034B596A0A46986A596A9142FAD1704701
:1024600000000B40074A536A9942FCD8994207D1B1
:10247000044B02E05A6A914202D19A6A8242F9D32D
:10248000704700BF00000B4070B516460D46194658
:102490000446FFF709FC2946701C00F07BFC002372
:1024A000E6816060A581A36070BD00BF38B54FF0C4
:1024B000000E044608E0E28993421FD12368C3E876
:1024C0008FEF85F3108820BF2368EFF3108572B675
:1024D000D3E8CF0F01220028FAD1C3E8402F00280B
:1024E000F6D1BFF35F8F20896389C31AE3D5B4F8AF
:1024F0000EC00CF1010213449C45DFD0A289636831
:1025000002FB003002F0A8F800222389E1890133A0
:102510009BB2994238BF134621682381C1E88F2FAF
:1025200085F3108840BF38BD38B504464FF0000E23
:10253000084606E021D12368C3E88FEF85F31088B1
:1025400020BF2368EFF3108572B6D3E8CFCF012206
:10255000BCF1000FF9D1C3E84C2FBCF1000FF4D14E
:10256000BFF35F8FB4F80AC02389A3EB0C03002BE1
:10257000E0DAE2890132DA42DDD038B1A28961685D
:1025800002FB0C1102F068F8B4F80AC0E3890CF100
:10259000010C1FFA8CFC634538BF4FF0000C226819
:1025A0000023A4F80AC0C2E88F3F85F3108840BF1B
:1025B00038BD00BF00EB400C4FEA8C0C0CF1804C96
:1025C0000CF5803CF0B51646DCF80420051FB2F58A
:1025D000803F38BF4FF48032EDB238BFCCF80420D2
:1025E000012D2AD94FF40067254C0CF54052176095
:1025F00054F82020B2B9DCF80020012D82EA4612FE
:1026000002F0E0020CF5805632602AD94FF40061E6
:1026100044F820304FF480330CF500521160CCF8B0
:102620000430F0BD6769B7FBF2FE0EF1010E0EEB50
:102630004E0EBEF1030EFCD2DDE70129D2D10324F8
:102640000CF540521460DCF80820D207FBD5DCF80A
:1026500000200B4C82EA461202F0E0020CF5805694
:1026600032600122DCF800504D4005F00305356072
:1026700002FA01F1DCF808200A42FBD0C6E700BFED
:10268000F8560020014B53F820007047F856002000
:10269000584B2DE9F0431C6C1746B4F5803F38BF0A
:1026A0004FF480320E464FF00301804638BF1A6463
:1026B000514A504B83B0D1635C6CE507FCD5DA6BB3
:1026C0004E4982F0200202F0E002CA63DB6B494D02
:1026D00083F0010303F00303CB636C6CA407FCD508
:1026E0004FF400624FF48039454B464CDA63464B59
:1026F0004246636101213346C5F840904348009744
:1027000000F056F94FF400616B6B07FB06F64B4582
:1027100038BFC5F83490384B2269B8FBF6F6196318
:102720003AB16369B3FBF2F3013303EB4303033BB9
:10273000FDD2304B31491A6B02F0E0020A631A6B8A
:1027400082F0020202F003020A63996B4807FCD58B
:102750004FF400654FF4803229490D632C495A63C8
:102760002161196C91424FF0030138BF1A64224B6A
:10277000204AD963536CD907FCD5D36B1F4D03F0A6
:10278000E003EB63D36B1B4983F0010303F0030306
:10279000EB634B6C9B07FCD54FF480334FF4006523
:1027A000174A6661D5630B64CA6C9A4238BFCB6422
:1027B0004FF40061104BA26999643AB16369B3FBAD
:1027C000F2F3013303EB4303033BFDD24FF400600C
:1027D0004FF48031074A094D936C83F0400303F0B6
:1027E000E003AB64064B084DA5619864D16403B067
:1027F000BDE8F083000001400030014000100140BE
:1028000000200140F8560020006CDC02000005406A
:10281000001BB7002DE9F04F4FF4A078994685B022
:10282000CDE902125F4CDFF884A154450AD908F1C2
:10283000FF38A4F53B54B8F10F0FA4F12004F4D1F4
:10284000002069E0072304F53722019403FB03F419
:1028500002F5D872B2FBF4FE70454FF0010C4FF058
:1028600002074FF003064FF004054FF005013FD07B
:10287000B3F1010E00F094800EFB03F4B2FBF4FB05
:1028800058454CD019B301FB03F4B2FBF4FB584597
:102890004FD0E5B105FB03F4B2FBF4FB584553D030
:1028A000AEB106FB03F4B2FBF4FB584557D077B149
:1028B00007FB03F4B2FBF4FB58455BD0BCF1000FFF
:1028C00005D00CFB03F4B2FBF4FB83455DD07346EB
:1028D00003FB03F4B2FBF4FE704501F1FF3105F197
:1028E000FF3506F1FF3607F1FF370CF1FF3CBFD192
:1028F00004FB1024002CBBD19E464A46DDF808B0EC
:10290000DDF80C900120284901FB08F1CBF80010FC
:10291000C9F80030C2F800E005B0BDE8F08F04FB54
:102920001024002CAED14A46DDF808B0DDF80C903A
:10293000E8E704FB1024002CABD14A468E46DDF8B4
:1029400008B0DDF80C90DDE704FB1024002CA7D1C3
:102950004A46AE46DDF808B0DDF80C90D2E704FB3D
:102960001024002CA3D14A46B646DDF808B0DDF8A5
:102970000C90C7E704FB1024002C9FD14A46BE46AA
:10298000DDF808B0DDF80C90BCE704FB1024002C47
:102990009DD14A46E646DDF808B0DDF80C90B1E777
:1029A000019C44E750262F00001BB70050F80C0094
:1029B00070B4039D04682D0345EA03451B4B002CAE
:1029C000B3FBF1F3B2FBF3F61FDB194A194B90424C
:1029D00014BF4FF480424FF40042174C1A6003F5C5
:1029E00080531A60A36832EA0303FBD1212200F569
:1029F00040530433016086601A600268002AFCDAE2
:102A00000822C5601A6070BC7047036803F03F037A
:102A10008B42DAD18368C3F30B03B342D5D1C368C9
:102A200003F4EE23AB42D0D1EDE700BF001BB700AB
:102A30000080054000200240000002400A4B0B4984
:102A40000B4A5960D3681904FCD40A4BD26843EA94
:102A500000130949534009481940054AC160D36829
:102A60001B04FCD4704700BF002010400020FE5A19
:102A7000000010400000FE5AF001FE5A0010104005
:102A8000012300EB4000800000F1804000F584103D
:102A900041600360704700BF0023DB8A002242E8E8
:102AA00000F2520201D4102118470421184700BF38
:102AB000034AD2F82838002BFBD0BFF35F8F704752
:102AC00000000E400021044B044ABFF35F8F43F81F
:102AD000041B9342F9D170470C080E402C080E409D
:102AE00010B44FF43C604FF42A64064A064B074981
:102AF0001460D06019605368002BFCDA5DF8044B59
:102B0000704700BF0080044000A0044000B0FA00FD
:102B1000704700BF08B50148FEF782FF70490010FA
:102B200038B5054C054DAC4204D254F8043B9847E7
:102B3000AC42FAD338BD00BFB8480010F8480010C6
:102B400038B5054C054DAC4204D254F8043B9847C7
:102B5000AC42FAD338BD00BFE4480010F84800107A
:102B600010B40748074C084B084A094904601A602A
:102B70008B6832EA0303FBD15DF8044B704700BF5A
:102B8000002002407F3BEFEF00300240F6FFF303EE
:102B900000000240044BDB6CB3F5004F03D14FF44F
:102BA0008022024BDA64704700001150002011505F
:102BB0004FF0E022044BD2F8881D0B43C2F8883D49
:102BC00010EE3004704700BF030330006FF0604127
:102BD000044B054A19609368DB4333F06043FAD134
:102BE000704700BF003002400000024010B545F2BF
:102BF0005320FFF751FFBDE810400346042018475B
:102C000010B545F25320FFF747FFBDE810400346DB
:102C100001201847FEF7C6BF70B51449144C154D76
:102C2000641AA610442E324628BF44222846920039
:102C300001F012FDB4F5867F13D80F4AC6F14401A6
:102C400012D02B19480803EBC000C3E90022083357
:102C50008342FAD1CB0704D521F00103334445F870
:102C60002320064B9D6070BD4323F8E70000001051
:102C700010010010000000201101001000ED00E024
:102C8000002370B52B4C82B0C4F88430FFF728FFC6
:102C90000122294BDA63636C012BFCD10321264A04
:102CA000244B11639C6B012CFCD102260525214687
:102CB0000523224A22480096FFF77AFE21462B463A
:102CC000204A21480095FFF773FE00220420314678
:102CD0001E4BFFF76FFC2146284600221C4BFFF7D6
:102CE00069FC0022082011461A4BFFF763FC002202
:102CF00009201146174BFFF75DFC00220620114604
:102D0000134BFFF757FC0022114B07201146FFF72A
:102D100051FC0420FFF7B6FC00240F4BA3FB003549
:102D2000AD0CE0B229460134FFF7AAFE062CF8D11B
:102D300002B070BD0000014000300140002F685912
:102D400000000540008C864700800540001BB7004E
:102D500080D1F008006CDC0283DE1B4338B50446EA
:102D6000094801F0A1FD204601F066FC0546064831
:102D700001F096FD2DB1054B2C449C4201D828460C
:102D800038BD0348FEF74CFE181000200000082054
:102D90007C49001070B504460E460B4801F084FDD6
:102DA0003146204601F006F80546074801F078FD57
:102DB00006FB04F42DB1054B2C449C4201D8284657
:102DC00070BD0348FEF72CFE1810002000000820FC
:102DD0007C49001000B9704700F018B910B5094BD4
:102DE00084B01C684CB1034600914FF0FF3203A938
:102DF0000548A047012004B010BD00F049F9204665
:102E000004B010BD406F0020D52D001000BEFDE7BE
:102E1000074A0346106838B1064903448B428CBF09
:102E20004FF0FF3013607047034908461160F3E725
:102E3000386F0020000008200C95002008B5FFF72F
:102E4000E5FF00BF38B5064C064DFFF769FEAC4202
:102E500004D254F8043B9847AC42FAD338BD00BFC3
:102E6000F84800100049001003680846114618474A
:102E7000437D2DE9F04781460F461646002B43D08F
:102E8000002A3BDD037D00204D1E014615F8012F71
:102E9000DFF884800A2A01F101040ED0A6421CD07A
:102EA0002B782146A3F10D03B3FA83F315F8012F14
:102EB0005B090A2A01F10104F0D1002BEED1814215
:102EC000A1EB000138441BDC02214046D9F8003058
:102ED0009847A64208D02046E2E7864204DD311A30
:102EE000D9F8003038449847374417F8013CA3F12B
:102EF0000D03B3FA83F35B0989F81430BDE8F0875A
:102F0000D9F800309847DFE73846D9F80030114645
:102F1000BDE8F047184700BF085B00102DE9F047F7
:102F200082B00D46924699460746FFF791FA4FF058
:102F3000FF366FF000442F4A821841F10003964299
:102F400074EB03013CBF324623462B4801F0B0FC32
:102F50006B1C804603D1384601F00CFC0546274B1C
:102F6000274E1C68274BB9F1000F18BF1E46B4B19D
:102F7000BAF1000F1AD1DFF8909001E0246974B122
:102F80002368002BFAD0D9F800300BB19C42F5D160
:102F900020462A463946B0472469002CF0D1B8F1C2
:102FA000000F1FD1284602B0BDE8F0874FF00A0A93
:102FB000DFF8549002E02469002CF0D02368002B45
:102FC000F9D0D9F800300BB1A342F4D12A463946E2
:102FD0002046B047012220460DF107018DF807A0D9
:102FE000B047E8E7044801F05BFC284602B0BDE8C2
:102FF000F08700BF40420F0020100020285700201B
:10300000692E0010712E0010345F0020F0B583B0DF
:1030100006468DF80700FFF71BFA4FF0FF356FF0FB
:103020000044174A821841F10003954274EB0301F2
:103030003CBF23462A46134801F03AFC124B074690
:103040001C689CB1114D01E024697CB12368002B00
:10305000FAD02B680BB19C42F6D1204601220DF12B
:103060000701FFF705FF2469002CEFD117B930469F
:1030700003B0F0BD034801F013FC304603B0F0BDCF
:1030800040420F002010002028570020345F00200D
:1030900038B5044601F06EFB012305461A4620466A
:1030A0002946FFF73BFF084B1C682CB163682BB126
:1030B00098472469002CF9D1284638BD2469002C92
:1030C000F4D1284638BD00BF2857002003BD00BFFB
:1030D00010B50446FFF734FD2346BDE810401847FD
:1030E000F0B5054687B0192017460E46FEF79CFD41
:1030F000002104461920FEF781FD0021CDE9046579
:1031000003970026002701224FF050438C46CDE95B
:1031100000670292B9B11A6D9507FCD5596540BF99
:103120001A6DD00703D420BF1A6DD207FBD59A6D54
:103130008A420DD04FF0000C06AA02EB8C0252F826
:10314000181CE7E79A6D1A6DD607FBD440BFE2E77B
:103150000CF1010CBCF1060FEED12146192007B08D
:10316000BDE8F040FEF74ABD0B4B0C4A93420CD32E
:103170009C4603F5FA710A4A9268CCF8F4010948B2
:10318000CCE97E300848FFF7ABBF4FF0FF3340F289
:10319000F3119C46EFE700BF000E08202C09082021
:1031A00000ED00E0D1300010CD3000102DE9F84FD7
:1031B0000446343004F13C0B8946904600F09EFAF8
:1031C000584600F07BF9254604F1300A012000F052
:1031D000EFFB034601206B6000F0EAFBE36BA860A5
:1031E0005BF8047F03F12F4606F560063A1D360DA5
:1031F00003EB820307EBC607EB6045F8107F5545EC
:10320000E4D14FF0000A4B460822042104F51D705A
:10321000C4E99AAAC4F870A2FFF736F94B4608220F
:10322000042104F52170FFF72FF9434608220421F9
:1032300004F52570FFF728F943460822042104F518
:103240002970FFF721F92346261D314653F8680BF4
:10325000012200F057FA2346314653F8E80B524654
:1032600000F050FA31464FF00052206804F5B47374
:1032700000F0D0FA31465246206804F5F47300F0AD
:10328000C9FA0326574614E08B423BD0531C9BB22D
:10329000D4F888528B4245F8220094BFA4F88C32AF
:1032A000A4F88CA2CEE88F7F8CF3108840BF013E3B
:1032B0002ED02368186900EB400040088000FFF71B
:1032C0004DFD002826D0D4F88432EFF3108C72B66E
:1032D000D3E8CF1F01220029FAD1C3E8412F0029EA
:1032E000F6D1BFF35F8FB4F88C22B4F88E32B4F805
:1032F0009212D31AD4F884E2C6D501F101084344EE
:103300009942C3D1CEE88F7F8CF3108820BFDAE7D3
:10331000BDE8F88F0148FEF783FB00BFFC490010B1
:103320004FF0010C024610B50C464FF0A04E8168DC
:10333000436840690CFA01F10CFA03F30CFA00F04F
:103340000B43034390690A2C0CFA00F043EA000394
:10335000506A0CFA00F043EA0003906ACEF80C14AD
:103360000CFA00FC43EA0C0312D0DEF814044140CE
:1033700011481940114BC0F814140B2010495A6021
:10338000FEF762FC2046BDE810400121FEF736BC86
:10339000DEF80404414008480B40C0F80434074BF1
:1033A000204608491A60FEF74FFC2046BDE8104051
:1033B0000121FEF723BC00BF001000502057002061
:1033C00049090020650900202DE9F04F4FF0010E5A
:1033D00002460426856885B0AD0105F1A045029539
:1033E000D0E905354FEA851C0CF1A0450395856AA7
:1033F0004768416A4FEA851C2E4C0CF1A04CDFF85F
:10340000B880CDF804C00EFA07FA0EFA01FC029D4E
:103410004AEA0C0A04EA47394FEA831B4FEA871C41
:1034200004EA433704EA41340EFA03F30CF1A04CEA
:1034300047EA080749EA080944EA08084AEA03048F
:103440000BF1A04A02F1E80B50F83C3FCCF800B079
:10345000CCF80450039DCCF80860CCF8109002F52D
:10346000947CCAF800C08901CAF80450019DCAF8CA
:10347000086001F1A041CAF8107002F5A4770F604E
:103480004D608E60C1F810804FF0A0410546C1F834
:103490005044483255F8044F10340EFA04F4596879
:1034A0002142FCD09542F5D1012105B0BDE8F04F95
:1034B00000F0DEB8FDFF7FFC59147E002DE9F04FCF
:1034C0006849824689B0006800F0A2FA4FF0030B09
:1034D0000AF118030193411CC30143EA013323F0AD
:1034E000C043CDE90230DFF884810AF10C05CAF847
:1034F000240055F8081CDAF8000000F069FA0222EE
:1035000055F8087C55F8044FDAF800600BFA04F916
:103510004B46A2403946304600F0F6FA4B464FF093
:10352000FF323946304600F023FB06F12F4101F50A
:103530006001090D06315FFA81F920464946FEF720
:1035400009FA601C4946FEF705FA4FF480330493EC
:10355000029BA4020593444B04F4F8443946039AB1
:103560000693304604AB44F08044079400F07CFBA3
:1035700001223368BA40286823EA0203336058F80E
:10358000202008EB800302F0710203F580539AF8C3
:1035900020101A60FEF710FA28689AF820100130FF
:1035A00058F8202008EB800303F5805302F07102E5
:1035B0001A60FEF701FA019BAB429AD1DAF81C407F
:1035C00000201F2C4FEA540331D80922102704266B
:1035D0004FF0051503F0070303EB83039B0003F192
:1035E000804101F5282318609860D8601A615F60F7
:1035F0001E60DD601D4D05EB840520460421FEF7AD
:10360000A9F92B6805F5805203F0710320469AF85A
:1036100020101360FEF7D0F9DAF81C3001340133C2
:10362000A34205F10405E8D209B0BDE8F08F0922F4
:10363000102704264FF0051503F00303083303EBAE
:1036400083039B0003F1804101F5282318609860F3
:10365000D8601A615F601E60DD60631CCAD109B06A
:10366000BDE8F08F0C5B001000000E680480034082
:10367000012310B48468426803FA04FCC46803FAA6
:1036800002F2A340C46942EA0C021A4300686308CC
:10369000D1B11F2C8ABF03F0030303F007030833E3
:1036A00003EB83039B0003F1804300F500500260AD
:1036B00003F52822126803F52923D24302F0010200
:1036C0005DF8044B1A6070471F2C8ABF03F0030398
:1036D00003F00703083303EB83039B0003F18043EC
:1036E00000F54050026003F52822126803F52923F3
:1036F00002F001025DF8044B1A607047002303607A
:10370000037170472DE9F04FD0E90179067D3E4CF9
:10371000B21AB2FA82F24E6890F800E004EA463C2F
:10372000CE6852094CEA464C0E682CF4F03C4CEA48
:10373000463CD0E903604FEA500A8EF0010040EAAF
:1037400042004EEA420E07EB090283B0324476088B
:1037500001962CF4000B7F088E684BF4067B9F606B
:10376000019F2A4DDFF8A8804BF0010BC3E90A7BCB
:103770008F6905EB80004CEA080C520805EB8E0EB1
:103780004FEA5909C3E90D6A18605E605E6118620C
:1037900018635E62C3F810E0C3F81890C3F80CC059
:1037A000C3F81CC0C3F83CC01D64C3E9117248696A
:1037B000CE6904EA403040EA46400E6920F4F03019
:1037C00040EA463040EA0800D864D865486A5F6538
:1037D00004EA4030CC6A1D6540EA44400C6A20F49B
:1037E000F030896A40EA443040EA0800C3E91D1A13
:1037F000C3F858A01D669A661D675966D866D867D3
:1038000003B0BDE8F08F00BFFDFF01FC740A00208B
:10381000190280002DE9F04FD0E901A94D685F4CF5
:1038200090F8008004EA453CCD6890F814B04CEA6A
:10383000454C0D682CF4F03C4CEA453C8BF0010BF8
:10384000574F88F0010545EA4B0507EB8505D0E9A0
:1038500003E048EA4B081D60D1F808B01D624FEA4A
:103860005A0507EB88069D602CF400084FEA5905BD
:1038700048F406789D614FEA5E0548F001089D62B4
:10388000484DC3F82C800AEB09084CEA0505F044C2
:1038900040081E61C3F804B0C3F814B0C3F824B0E4
:1038A0004FEA580EDD60DD61C3F834B0002A40D025
:1038B0004D69CE6904EA453545EA46454E6A25F428
:1038C000F03504EA4634CE6A1A6344EA46440E6987
:1038D0001F6445EA4638344D0E6A4CEA050CC3F8BD
:1038E0003CC0D1F818C01F662E4F24F4F03444EACF
:1038F000463448EA07072B4E896A02EB8002DF64F0
:1039000048EA05071A6526439863C3F844C0C3F81C
:1039100054C0C3F848E0986502EB8002DF652C4391
:10392000C3E91AE6C3E91C21C3E91E045966BDE8D0
:10393000F08F4A69C3E90E0504EA42354A6A8E6986
:1039400004EA4234CA6945EA4245CA6A25F4F035B8
:1039500044EA42440A6924F4F03445EA42350A6AEA
:1039600045F4000544EA423445F406750F4A44F430
:10397000000445F0010544F40674896A44F001042A
:10398000C3E912E5C3E91605151D1A635E645E6599
:103990001F6426461F661D650832C1E7FDFF01FC56
:1039A000740A00201902800019008000680A0020B3
:1039B00010B5054C82B001460F2300220094034845
:1039C000FEF78EF802B010BD1C4A0010F4940020DF
:1039D00000F12F4000F56000030D022B09D00848CC
:1039E000084A01EB8301012B08BF02460648FEF797
:1039F0004BB8064A044801EB8301FEF745B800BF07
:103A00007C4A00103C4A0010B0190020584A0010AF
:103A10002DE9F04789460546FEF71AF8012399F883
:103A2000042099F905C005F12F4EDFF8D8800EF576
:103A3000600E93404FEA1E5EBCF1000F58F82E70E6
:103A400003F1FF3346DBC2F120018C45644631DCD3
:103A500003FA0CF139422DD16646D5F868A199F8E0
:103A60000710BAF1000F2CD0C9072CD4BCF1000FFD
:103A700001DB664527D1B3401F423CD1D9F8001085
:103A800082B1B44601EB420931F8022B0CF1120A63
:103A9000B2F5005F38BF921949450CF1010C45F8A9
:103AA0002A20F1D13B4348F82E30FDF7E3FF2046B2
:103AB000BDE8F0874FF0FF34FDF7DCFF2046BDE89E
:103AC000F0874907D2D56FF00A04FDF7D3FF2046EF
:103AD000BDE8F087D2F120040DD403FA04F1394295
:103AE000264603D1B9E739422646B6D0013C661CCA
:103AF00003FA04F1F7D16FF00804FDF7BBFF20468D
:103B0000BDE8F087A01700202DE9F0434FF4003501
:103B100001EB410600EBC60404F5435400EBC60676
:103B2000D6F8DC904F00D6F8CC80E560B3B193FABC
:103B3000A3FCBCFA8CFC22FA0CF503F1FF3E4FEA21
:103B40004C1C05F001054CF0806445F4604513EA17
:103B50000E03C6F8DC40C6F8D850E8D10F4400EB9D
:103B6000C700C0F8DC90C0F8CC80BDE8F08300BF8F
:103B70002DE9F0474FF4003501EB410600EBC60498
:103B800004F5435400EBC606D6F8DCA04FEA410822
:103B9000D6F8CC90E560BBB14EF2800793FAA3FC57
:103BA000BCFA8CFC22FA0CF503F1FF3E4FEA4C1CE8
:103BB00005F001054CF080643D4313EA0E03C6F89E
:103BC000DC40C6F8D850E9D1884400EBC800C0F802
:103BD000DCA0C0F8CC90BDE8F08700BF2DE9F04133
:103BE000D0F868419DF81860121B1F2A38D84EF291
:103BF0009F044EF280054FF4003801EB410C002E7B
:103C000018BF254600EBCC0404F5435400EBCC0C64
:103C1000052BDCF8DC704FEA410EDCF8CC60C4F810
:103C20000C800CD95401053B44F0A0540532052BFF
:103C3000CCF8DC4002F01F02CCF8D850F2D8714426
:103C400000EBC1010020520142EA8363C1F8DC307D
:103C5000C1F8D850C1F8DC70C1F8CC60BDE8F08183
:103C60006FF00400FAE700BFF0B5012504688D404D
:103C700024EA05040460B3B3D3E901561F68DC6885
:103C800001EB410300EBC303C3F8C8704FEA410CDA
:103C9000C3F8D060C3F8CC50C3F8DC400CEB010390
:103CA0004FF0013500EBC30C4FF0004600EBC30EA4
:103CB00001230EF5865E0C1D01F108078D40CEF83C
:103CC000106003FA04F4CEF8106002F01F02856061
:103CD000BB4000F5005004600EF1100E03600020A0
:103CE000CCF8D820F0BD4FF480374FF440264FF485
:103CF000F83501EB410400EBC404C4F8C8704FEA86
:103D0000410CC4F8D060C4F8CC50C4F8DC30C5E72E
:103D100070B5860747D0541E002A3ED0CAB203466B
:103D200001E0013C39D303F8012B9D07F9D1032CA5
:103D30002CD9CDB20F2C05EB052505EB054535D962
:103D4000A4F1100C03F1100E1A462CF00F064FEAE6
:103D50001C1CB644C2E90055C2E902551032724536
:103D6000F8D10CF1010214F00C0F04F00F0C03EB6E
:103D7000021213D0ACF1040323F003030433134401
:103D800042F8045B9342FBD10CF003042CB1C9B29E
:103D90001C4403F8011BA342FBD170BD64461346CB
:103DA000002CF4D1F9E703461446C0E71A46A446AE
:103DB000E0E700BF024B0A460146186800F008B869
:103DC000E00A0020014B1868704700BFE00A00209D
:103DD00038B5A1FB021434BB00F032F8054630B30D
:103DE00050F8042C22F00302043A242A0CD8132A97
:103DF0000FD91B2AC0E9004412D9242AC0E9024481
:103E000018D000F1100205E02146FFF781FF284697
:103E100038BD024600232846C2E90033936038BD0E
:103E200000F10802F6E7FFF7CDFF0C230360002541
:103E3000284638BD00F11802C0E90444EAE700BF93
:103E400001F10B03162B2DE9F04F074683B023D861
:103E5000102900F2AF8000F083FC10251823022007
:103E6000C24E33445C68A3F10802944200F07881AA
:103E70006368384623F00303D4E902122344CA607E
:103E800091605A68083442F001025A6000F06AFCFE
:103E9000204603B0BDE8F08F002B23F00705C0F2E9
:103EA0008980A94200F2868000F05AFCB5F5FC7FBB
:103EB000C0F0B2816B0A00F08180042B00F27C819B
:103EC000AB0903F1390003F1380EC300A74E3344A8
:103ED000A3F1080C5C68A44507D10DE0002AE16855
:103EE00080F238818C450C4606D0636823F00303CA
:103EF0005A1B0F2AF2DD7046DFF87482346944459C
:103F000000F0EA80636823F0030CACEB05030F2B91
:103F100000F39281002BC6E9048880F28181BCF510
:103F2000007FD6F804E080F027814FEADC0301220D
:103F30004FEA5C1C013302FA0CF256F833104EEAD9
:103F4000020E06EBC302083AC6F804E0C4E9021206
:103F500046F83340CC6083104FF0010C0CFA03FCA0
:103F6000F44531D81CEA0E0F07D120F003004FEAC8
:103F70004C0C04301CEA0E0FF9D006EBC00A814647
:103F8000D646DEF80C300BE05A681C46DB6822F09F
:103F90000302511B0F2900F31B81002980F22F819E
:103FA0009E45F1D109F101090EF1080E19F0030F38
:103FB000E7D165E10C233B60002469E74FF400730F
:103FC00040204FF03F0E81E7B468636823F0030997
:103FD000A9EB05030F2B02DDA94580F0AA80DFF8CD
:103FE00094B104EB09030820DBF8002000931032A1
:103FF00002EB050800F0A6FBD6F8081402460131D2
:1040000005D008F1FF384142804401EA08084146E2
:104010003846019200F0DCFBB0F1FF3F8246019A86
:104020007CD0009B83425AD9B44277D1DBF804009C
:1040300002F1FF3C4044CBF80400D6F808140131EB
:1040400000F06B81009BAAEB03010144CBF8041044
:104050001AF00703009300F03D81C3F108013846D0
:104060008A440A44D04408EA0C01521A02EA0C01BC
:10407000019100F0ADFB421C00F06781A0EB0A004B
:10408000019900EB010848F00102C6F808A0B4420B
:10409000CAF80420DBF804201144CBF8041031D016
:1040A000B9F10F0F40F205816068A9F10C020523F8
:1040B00022F0070200F0010010430F2A606004EBB9
:1040C0000200C0E901331DD904F10801384600F0AF
:1040D000B7F9DBF8041015E0D6F804E03BE7DBF8AD
:1040E000041002F1FF3C41440846CBF80410A4D16F
:1040F000009B13EA0C0FA0D109EB0802B06842F054
:1041000001024260DBF82C208A42DBF8302038BF05
:10411000CBF82C108A4238BFCBF83010B4686268F4
:1041200022F00302531B0F2B40F3C680954200F28E
:10413000C380621945F0010543F00103083444F8D7
:10414000045C3846B260536000F00CFB204603B0BC
:10415000BDE8F08FA26823443846D1608A6090E6BB
:10416000DC68A3427FF484AE0230C5E6080C002070
:10417000100C002078140020BCF5206F4FEA5C2260
:104180006CD3142A00F2B68002F15C035B32DB00D0
:10419000F118F3580839994203D191E09B6899428C
:1041A00004D05A6822F003026245F7D8D968C4E9FE
:1041B00002318C60DC60CEE6142B56D9542B00F211
:1041C000A2802B0B03F16F0003F16E0EC3007DE69E
:1041D000D4F808C03846671945F001056560CCF889
:1041E0000C30C3F808C041F00103C6E90477C7E901
:1041F00002887B60A150083400F0B4FA48E62244FB
:104200003846516841F00101516054F8082FD360DD
:104210009A6000F0A7FA3BE6E80805F108031FE6FC
:10422000A44438460834DCF8043043F00103CCF8E9
:10423000043000F097FA2BE6621943F0010145F0D3
:10424000010538466560C6E90422C2E9028851606A
:1042500044F80C30083400F085FA19E64FEA9C1255
:1042600002F139033832DB0092E703F15C0003F11D
:104270005B0EC3002AE65AF80839534540F08280A5
:1042800010F0030F00F1FF30F5D1736823EA0C033F
:1042900073604FEA4C0C0CF1FF329A4204D393E660
:1042A0004FEA4C0C09F104091CEA030FF8D0484608
:1042B00063E60123CAF80430384600F053FA7BE67F
:1042C00092104FF0010C0CFA02F24EEA020EC6F800
:1042D00004E06CE70AEB0801384601EA0C01521AC7
:1042E00002EA0C01019100F073FA431C7FF4C6AEA0
:1042F0000099C8E6542A13D84FEA1C3202F16F0322
:104300006E32DB0044E7B3F5AA7F13D8EB0B03F161
:10431000780003F1770EC300D8E5C6F808A497E645
:10432000B2F5AA7F19D84FEADC3202F1780377326E
:10433000DB002DE740F25452934219D8AB0C03F145
:104340007D0003F17C0EC300C0E5009B0021A3F1BA
:1043500008029044A8EB0A0895E640F254539A42AA
:104360000CD84FEA9C4202F17D037C32DB000FE760
:104370004FF47E737F204FF07E0EA7E54FF47E73DF
:104380007E2205E7736884E72DE9F8430646DFF8E7
:10439000AC800820894600F0D5F90546304600F08B
:1043A000DFF9D8F808305F6827F00307A7F1110498
:1043B000A4EB09042C44B4FBF5F4013C05FB04F424
:1043C000A54208DC0021304600F002FAD8F8083097
:1043D0003B44984205D0304600F0C4F90020BDE8C7
:1043E000F8836142304600F0F3F901300FD03F1BF3
:1043F000104AD8F80830304647F001075F6013686C
:104400001B1B136000F0AEF90120BDE8F88300210A
:10441000304600F0DDF9D8F80820831A0F2BDADDDA
:1044200043F0010303495360034B1B68C01A086043
:10443000D1E700BF7C14002010100020080C0020E1
:1044400000297CD02DE9F0410C46804600F088F927
:10445000764F54F8043CA4F10805BE6823F001012E
:1044600068184268864222F0030200F08380DE076B
:1044700000EB020C426033D454F8084CDCF80430F2
:1044800007F1080C2D1B214403F00103AC686445BF
:1044900064D0D5F80CE0C4F80CE0CEF80840002B4E
:1044A00000F0818041F001036B600160B1F5007F95
:1044B00022D2CB080122490901338A4079680A4394
:1044C00057F833107A6007EBC302083AC5E90212C5
:1044D00047F83350CD604046BDE8F04100F042B9A6
:1044E000DCF80430DB072BD541F00103B1F5007F88
:1044F00044F8043C0160DCD3B1F5206F4FEA51234E
:1045000053D28B0903F1390003F13802C300F818C4
:10451000FB580838984203D161E09B68984204D068
:104520005A6822F003028A42F7D8D868C5E90230F7
:1045300085604046DD60BDE8F04100F013B970478A
:10454000114407F1080C836863453FD0C268DA6004
:10455000936041F001036B606950A7E7002B5FD1C6
:104560000A44D0E90213CB60996042F001036B600A
:10457000AA50B0E7DB070A4407D454F8083CED1A08
:104580001A44D5E90213CB60996042F001036B60D5
:10459000274BBD601B6893429DD8264B4046196847
:1045A000FFF7F2FE97E71144CDE7142B08D9542BFF
:1045B0001DD80B0B03F16F0003F16E02C300A6E7D9
:1045C00003F15C0003F15B02C300A0E741F00103CB
:1045D000C7E90455C5E902CC6B6069507BE701214E
:1045E000921001FA02F279680A437A609EE7B3F505
:1045F000AA7F06D8CB0B03F1780003F17702C30042
:1046000085E740F25452934206D88B0C03F17D00AB
:1046100003F17C02C3007AE74FF47E737E2276E7D3
:1046200041F001036B60016055E700BF080C0020FA
:104630001410002078140020024B01461868FFF780
:10464000FFBB00BFE00A0020024B01461868FFF7DD
:10465000F7BE00BFE00A0020844641EA000313F0E1
:10466000030349D1403A23D30B6803604B6843608E
:104670008B688360CB68C3600B6903614B694361DE
:104680008B698361CB69C3610B6A03624B6A4362C6
:104690008B6A8362CB6AC3620B6B03634B6B4363AE
:1046A0008B6B8363CB6BC36340304031403ADBD2CA
:1046B00030320BD30B6803604B6843608B688360B8
:1046C000CB68C36010301031103AF3D20C3205D3EE
:1046D00051F8043B40F8043B043AF9D2043208D0C4
:1046E000D2071CBF11F8013B00F8013B01D30B8836
:1046F00003806046704700BF082A13D38B07B1D0F0
:1047000010F00303AED0C3F10403D21ADB071CBFC1
:1047100011F8013B00F8013BA4D331F8023B20F82B
:10472000023B9FE7043AD9D3013A11F8013B00F864
:10473000013BF9D20B7803704B7843708B78837010
:1047400060467047082802D14FF48050704708B582
:10475000FFF738FB162203464FF0FF301A6008BD02
:10476000704700BF704700BF002301461A46184635
:1047700000F054B820F0030110F00300C0F1000075
:1047800051F8043B00F1040C4FEACC0C6FF000022E
:104790001CBF22FA0CF213434FF0010C4CEA0C2C14
:1047A0004CEA0C4CA3EB0C0222EA030212EACC12F4
:1047B00004BF51F8043B0430F4D0C2F1000102EA16
:1047C0000102B2FA82F2C2F11F0200EBD20070477E
:1047D00038B50022064D044608462A60FEF718FB4D
:1047E000431C00D038BD2B68002BFBD0236038BDA4
:1047F000E815002038B5074D074C2C1BA41005D038
:10480000013C55F8043D9847002CF9D1BDE83840EB
:1048100000F040B8004900100049001070B4164D77
:104820002C681CB365681F2D23DC38B96B1C002075
:104830000235636044F8251070BC704704EB850CAA
:104840000228CCF888204FF00102D4F8886102FADF
:1048500005F246EA0206C4F88861CCF80831E5D1D1
:10486000D4F88C311343C4F88C31DFE7034C2C604F
:10487000D8E74FF0FF30DFE77C170020EC15002071
:10488000024B13B10248FFF76FBF704700000000F2
:10489000F5470010F8B500BF5FF800F001000820F0
:1048A0005FF800F0110400205FF800F0B50200206E
:1048B0005FF800F0A5030020ED2B0010612B001025
:1048C000952B0010812C0010CD2B0010C52A001054
:1048D000152C0010B12A0010B51C0010192C001066
:1048E00031200010112B0010012C0010B12B0010F2
:1048F000951B0010BD1B00108148001055020010D0
:1049000053797374656D20636C6F636B206F6620E1
:104910002575206B487A2063616E6E6F7420626526
:104920002065786163746C79206163686965766578
:1049300064000000010000000A2A2A2A2050414E8B
:104940004943202A2A2A0A000A00000048617264AA
:104950007761726520616C61726D20256420616CE5
:10496000726561647920636C61696D656400000043
:104970004861726420617373657274004F757420AE
:104980006F66206D656D6F727900000052656C6511
:1049900061736500626F6F74325F67656E6572691F
:1049A000635F303368000000322E322E300000008A
:1049B00061646166727569745F6665617468657269
:1049C0005F727032333530005075675644500000C6
:1049D000417567203234203230323500544D445313
:1049E00020667265652071756575652066756C6CED
:1049F00020696E204952512100000000544D44535B
:104A00002062756666657220616C6C6F63617469A3
:104A10006F6E206661696C65640000004E6F204413
:104A20004D41206368616E6E656C73206172652014
:104A3000617661696C61626C6500000050494F20CD
:104A40003020534D20256420616C726561647920AB
:104A5000636C61696D65640050494F203220534D8D
:104A600020282564202D20382920616C726561641E
:104A70007920636C61696D656400000050494F20C6
:104A80003120534D20282564202D20342920616CAD
:104A9000726561647920636C61696D656400000012
:104AA000A84A001006FF010214280A40208000C016
:104AB000942000000000000000000000FF00FF0044
:104AC00000000000000000000000000000000000E6
:104AD00000000000000000001800000000000000BE
:104AE00000000000000000000000000000000000C6
:104AF00000000000000000000000000000000000B6
:104B000000000000000000000000000000000000A5
:104B1000000008000C000000000000000000000081
:104B20000000000000000000000000000000000085
:104B30000000000000000000000000000000000075
:104B40000000001C18000000000000000000000031
:104B50000000000000000000006E000000000000E7
:104B60000000000088AABB1818186C00006C6C00CC
:104B70006C6C1800181800180018186C6C006C0089
:104B80006C006C186C00006C1800006C181800FFAA
:104B9000000FF0FF00000000000000000000000017
:104BA00000000000000000000018000000000000ED
:104BB000000000000000000000000000FF00FF00F7
:104BC0000000000001400000003E00000000000066
:104BD00000000000000066001800000C000000004B
:104BE00000000000000000000000000000000000C5
:104BF00000000000000000000000000000000000B5
:104C000000000000000000000000000000000000A4
:104C100000001C000C00000000000000000000006C
:104C20000000000000000000000000000000000084
:104C3000000000000000300800061C00080006000C
:104C4000180663360C00000800060C0600636318A3
:104C50001C001F7018301818003B3C1C000000039B
:104C6000030000002255EE1818186C00006C6C0050
:104C70006C6C1800181800180018186C6C006C0088
:104C80006C006C186C00006C1800006C181800FFA9
:104C9000000FF0FF00000000000000000000000016
:104CA0000000000000000000001800001C0000F0E0
:104CB0001B0E0000007E7E0000000000FF00FF7859
:104CC0003CFCFE0003601866FE6300181818000024
:104CD00000000000001866003E001C0C300C0000B4
:104CE000000000003E183E3E307F1C7F3E3E00002C
:104CF0000000003E00083F3C1F7F7F3C633C78671C
:104D00000F63631C3F3E3F3E7E63636363667F3C8D
:104D1000003C36001800070038001C000718600728
:104D20001C000000000000000800000000000070EF
:104D3000180E6E003C33181C330C36001C330C6606
:104D40003C0C631C06007C1C630C1E0C6363631824
:104D5000366633D80C180C0C6E0036360C00000387
:104D60000318000088AABB1818186C00006C6C00AF
:104D70006C6C1800181800180018186C6C006C0087
:104D80006C006C186C00006C1800006C181800FFA8
:104D9000000FF0FF00007F000000000000001C7802
:104DA00000003800000000007018000036000030DD
:104DB000361B00000081FF0000181800FF00FF7084
:104DC00066CCC61807703C66DB06003C3C18000049
:104DD00000000000003C66366300360C1818000026
:104DE00000000000631C6363380306636363000014
:104DF000600006633E1C666636666666631830664B
:104E000006776736666366637E6363636366630C17
:104E1000013063000000060030003600061860060E
:104E200018000000000000000C0000000000001846
:104E300018183B0066330C3633181C0036331866DE
:104E4000661808000000363663183318631C003CEF
:104E500026663318060C06063B6336360C00004304
:104E6000431800002255EE1818186C00006C6C00F6
:104E70006C6C1800181800180018186C6C006C0086
:104E80006C006C186C00006C1800006C181800FFA7
:104E9000000FF0FF000063007F0000007E1C360C56
:104EA00000C00C3E00000C30D81800003600003066
:104EB000360C000000A5DB36083C3C00FF00FF5824
:104EC00066FCFE180F787E66DB1C007E7E180000F4
:104ED0000000087F003C2436434336060C300000B7
:104EE00000000040631E60603C03036063631818A9
:104EF00030000C636336664366464643631830668B
:104F0000067F6F63666366635A6363633666610C2C
:104F100003300000000006003000260006000006F6
:104F200018000000000000000C0000000000001845
:104F300018180008430000000000003C00000000BA
:104F400000001C1C7F003300000000000036636678
:104F5000063C1F180000000000677C1C0000006376
:104F60006300000088AABB1818186C00006C6C0065
:104F70006C6C1800181800180018186C6C006C0085
:104F80006C006C186C00006C1800006C181800FFA6
:104F9000000FF0FF003E637F6300666E18366318F3
:104FA000006006637F181818D81818001C0000301D
:104FB00036063E000081FF7F1C3C7E00FF3CC34C58
:104FC000660CC6DB1F7C1866DB3600181818180C38
:104FD00000141C7F003C007F03631C000C3066182B
:104FE00000000060731830603603036063631818B4
:104FF000187E18306363660366161603631830362E
:10500000067F7F6366636606186363633E66300CE3
:1050100007300000001E1E3E3C3E066E361C7066C9
:1050200018373B3E3B6E3B3E3F33666363637F18FE
:105030001818001C03333E1E1E1E1E663E3E3E1CFC
:105040001C1C36366633333E3E3E333363636306A1
:105050000F1823181E1C3E333B6F00000C0000335A
:1050600033186C1B2255EE18181F6C001F6F6C7FD5
:105070006F6C1F00181800180018F86CECFCEFFF9C
:10508000ECFFEFFF6CFF006CF8F8006CFF1800FFFE
:10509000000FF0FF6E630336067E663B3C636330B1
:1050A0007E7E06630018300C1818186E0000003061
:1050B00036133E000081FF7F3EE7FF18E766991E2A
:1050C000660CC63C7F7F1866DE6300181818300631
:1050D00003361C3E001800363E306E000C303C1883
:1050E000000000307B18183C333F3F303E7E00000C
:1050F0000C0030187B633E03661E1E037F18301EB3
:10510000066B7B633E633E1C1863636B1C3C180C90
:105110000E3000000030366336630F336E18603691
:10512000187F666366336E630C3366633663330ED3
:105130000070003603336330303030066363631829
:1051400018186363066E7F636363333363636306B8
:10515000067E337E30186333667F7E3E0C7F7F1879
:105160001818363688AABB1818186C0018606C60BE
:10517000606C1800181800180018186C0C0C00004F
:105180000C0000006C00006C1818006C181800FF70
:10519000000FF0FF3B3F03360C1B66186663637C11
:1051A000DBDB3E63007E60061818003B0000003029
:1051B000361F3E0000BDC37F7FE7FF3CC342BD33C7
:1051C0003C0CC6E71F7C1866D863001818187F7F50
:1051D000037F3E3E0018003660183B000C30FF7E17
:1051E000007F00186F180C607F6063186360000018
:1051F000060060187B7F66036616167B6318301EF8
:1052000006637363066336301863636B1C180C0CFB
:105210001C300000003E6603337F06336618601EB4
:10522000186B6663663366060C33666B1C6318186E
:105230001818006303337F3E3E3E3E067F7F7F1893
:10524000181863633E6C33636363333363636306CD
:1052500006187B183E186333667B00000603600C5B
:105260000C181B6C2255EE181F1F6F7F1F6F6C6F81
:105270007F7F1F1FF8FFFFF8FFFFF8ECFCECFFEF4C
:10528000ECFFEFFFFFFFFFFCF8F8FCFFFF1FF8FF4C
:10529000FF0FF0001B630336181B6618667F366627
:1052A000DBDB06637F18300C18187E00001800370F
:1052B00000003E000099E77F3EE77E3CC342BD33DD
:1052C000180CC63C0F787E66D8367F7E18183006DC
:1052D00003363E1C00180036600C33000C303C18BE
:1052E0000000000C671806603060630C636000000B
:1052F0000C7E30187B6366036606066363183336DC
:1053000006636363066B66601863636B3E18060C86
:105310003830000000336603330306336618601E1E
:10532000186B66636633061C0C33666B1C630C18C3
:10533000181800634333033333333366030303180E
:1053400018187F7F067E336363633333636363665A
:10535000067E331833186333667300000303600658
:10536000663C363688AABB1818186C6C186C6C6CC6
:1053700000000018000018180018186C006C006C71
:105380006C006C0000186C0000186C6C180018FFA2
:10539000FF0FF0001B6303360C1B6618666336664E
:1053A000DBCF066300181818181B006E001818369B
:1053B00000003E000081FF3E1C181818E766993374
:1053C0007E0EE6DB07703C00D81C7F3C187E180C74
:1053D0007F147F1C0000007F610633000C306618CC
:1053E00018000006631803603060630C63601818CF
:1053F000180018003B63664366460663631833660D
:1054000046636363067B66631863367F3618430C16
:1054100070300000003366033303063366186036CD
:10542000186B6663663306300C33666B1C630618B4
:1054300018180063663303333333333C0303031814
:1054400018186363061B3363636333336363633C1E
:105450000618331833186333666300006303603B38
:10546000733C6C1B2255EE1818186C6C186C6C6C25
:1054700000000018000018180018186C006C006C70
:105480006C006C0000186C0000186C6C180018FFA1
:10549000FF0FF0001B630336061B3E183C633666A5
:1054A0007E7E066300000C30181B183B000000369F
:1054B00000003E000081FF1C08181800FF3CC333A9
:1054C000180FE71803601866D8307F18183C0000E2
:1054D00000007F08001800366363330018180000CE
:1054E00018001803631863633063630C6330181883
:1054F00030000C180363666636660666631833660A
:1055000066636336063E666318631C776318630C34
:1055100060300000003366633363063E66186066E1
:10552000186B66633E3E06636C333C7F367E6318C1
:105530001818007F3C3363333333333063636318AD
:1055400018186363661B3363636333337E366318F3
:1055500067183318331863336663000063036061B0
:10556000793C000088AABB1818186C6C186C6C6C1D
:1055700000000018000018180018186C006C006C6F
:105580006C006C0000186C0000186C6C180018FFA0
:10559000FF0FF0003B3F0336031B06181836366634
:1055A00000060C637F000000181B18000000003C80
:1055B00000003E00007E7E08003C3C00FF00FF1E15
:1055C0001807671801400066D8637F7E181800002E
:1055D00000000000001800363E616E00300C000034
:1055E000180018013E7E7F3E783E3E0C3E1E000CA9
:1055F000600006183E633F3C1F7F0F5C633C1E67E4
:105600007F63631C0F30673E3C3E0836633C7F3C43
:10561000403C0000006E3E3E6E3E0F30673C6667C9
:105620003C63663E06300F3E386E183663607F700E
:10563000180E0000306E3E6E6E6E6E603E3E3E3C5A
:105640003C3C63637F76733E3E3E6E6E601C3E184C
:105650003F1863186E3C3E6E666300003E000030EB
:105660007C1800002255EE1818186C6C186C6C6CC5
:1056700000000018000018180018186C006C006C6E
:105680006C006C0000186C0000186C6C180018FF9F
:10569000FF0FF0006E0303367F0E06187E1C773C6A
:1056A0000003386300FF7E7E180E00000000003803
:1056B000000000000000000000000000FF00FF00EC
:1056C0000000030000000000003E00000000000099
:1056D00000000000000000001800000000000000B2
:1056E0000C000000000000000000000000000000AE
:1056F00000000000000000000000000000000000AA
:105700000000000000700000000000000000000029
:1057100000000000000000000000003300006600F0
:105720000000000006300000000000000030000013
:1057300000000000600000000000003C00000000CD
:105740000000000000000000000000003000000029
:105750000000001B00000000000000000000001816
:105760006000000088AABB1818186C6C186C6C6C70
:1057700000000018000018180018186C006C006C6D
:105780006C006C0000186C0000186C6C180018FF9E
:10579000FF0FF00000030000000003000000000005
:1057A00000000000000000001800000000000000E1
:1057B000000000000000000000000000FF00FF00EB
:1057C00000000000000000000000000000000000D9
:1057D00000000000000000001800000000000000B1
:1057E00000000000000000000000000000000000B9
:1057F00000000000000000000000000000000000A9
:105800000000000000000000000000000000000098
:10581000000000FF000000000000001E00003C002F
:10582000000000000F78000000000000001F0000D2
:10583000000000003E00000000000000000000002A
:105840000000000000000000000000001E0000003A
:105850000000000E00000000000000000000007CBE
:10586000600000002255EE1818186C6C186C6C6CF7
:1058700000000018000018180018186C006C006C6C
:105880006C006C0000186C0000186C6C180018FF9D
:10589000FF0FF00000020000000000000000000008
:1058A00000000000000000001800000000000000E0
:1058B000000000000000000000000000FF00FF00EA
:1058C00000000000000000000000000000000000D8
:1058D00000000000000000000000000000000000C8
:1058E00000000000000000000000000000000000B8
:1058F00000000000000000000000000000000000A8
:105900000000000000000000000000000000000097
:105910000000000000000000000000000000000087
:105920000000000000000000000000000000000077
:105930000000000000000000000000000000000067
:105940000000000000000000000000000000000057
:105950000000000000000000000000000000000047
:105960000000000088AABB1818186C6C186C6C6CCE
:1059700000000018000018180018186C006C006C6B
:105980006C006C0000186C0000186C6C180018FF9C
:10599000FF0FF00000000000000000000000000009
:1059A00000000000000000001800000000000000DF
:1059B000000000000000000000000000FF00FF00E9
:1059C00000000000000000000000000000000000D7
:1059D00000000000000000000000000000000000C7
:1059E00000000000000000000000000000000000B7
:1059F00000000000000000000000000000000000A7
:105A00000000000000000000000000000000000096
:105A10000000000000000000000000000000000086
:105A20000000000000000000000000000000000076
:105A30000000000000000000000000000000000066
:105A40000000000000000000000000000000000056
:105A50000000000000000000000000000000000046
:105A6000000000002255EE1818186C6C186C6C6C55
:105A700000000018000018180018186C006C006C6A
:105A80006C006C0000186C0000186C6C180018FF9B
:105A9000FF0FF00000000000000000000000000008
:105AA00000000000000000001800000000000000DE
:105AB0000000000006005250D3F075428C490010DF
:105AC00006005250E182887F94490010060052502F
:105AD000ABB36053A849001006005250BBFF3CB660
